{
  "contractName": "OpenAuction",
  "abi": [
    {
      "anonymous": false,
      "inputs": [
        {
          "indexed": false,
          "internalType": "address",
          "name": "winner",
          "type": "address"
        },
        {
          "indexed": false,
          "internalType": "uint256",
          "name": "amount",
          "type": "uint256"
        },
        {
          "indexed": false,
          "internalType": "uint256",
          "name": "id",
          "type": "uint256"
        }
      ],
      "name": "AuctionEnded",
      "type": "event"
    },
    {
      "anonymous": false,
      "inputs": [
        {
          "indexed": false,
          "internalType": "address",
          "name": "bidder",
          "type": "address"
        },
        {
          "indexed": false,
          "internalType": "uint256",
          "name": "bidAmount",
          "type": "uint256"
        },
        {
          "indexed": false,
          "internalType": "uint256",
          "name": "bidTime",
          "type": "uint256"
        },
        {
          "indexed": false,
          "internalType": "uint256",
          "name": "id",
          "type": "uint256"
        }
      ],
      "name": "HighestBidIncreased",
      "type": "event"
    },
    {
      "inputs": [
        {
          "internalType": "uint256",
          "name": "",
          "type": "uint256"
        }
      ],
      "name": "auctionBoundGood",
      "outputs": [
        {
          "internalType": "uint256",
          "name": "",
          "type": "uint256"
        }
      ],
      "stateMutability": "view",
      "type": "function",
      "constant": true
    },
    {
      "inputs": [
        {
          "internalType": "uint256",
          "name": "",
          "type": "uint256"
        }
      ],
      "name": "auctions",
      "outputs": [
        {
          "internalType": "string",
          "name": "title",
          "type": "string"
        },
        {
          "internalType": "string",
          "name": "info",
          "type": "string"
        },
        {
          "internalType": "uint256",
          "name": "amountStart",
          "type": "uint256"
        },
        {
          "internalType": "uint256",
          "name": "bond",
          "type": "uint256"
        },
        {
          "internalType": "address payable",
          "name": "beneficiary",
          "type": "address"
        },
        {
          "internalType": "address payable",
          "name": "highestBidder",
          "type": "address"
        },
        {
          "internalType": "uint256",
          "name": "highestBid",
          "type": "uint256"
        },
        {
          "internalType": "uint256",
          "name": "numBidders",
          "type": "uint256"
        },
        {
          "internalType": "bool",
          "name": "startFlg",
          "type": "bool"
        },
        {
          "internalType": "enum OpenAuction.ItemCondition",
          "name": "condition",
          "type": "uint8"
        },
        {
          "internalType": "bool",
          "name": "endFlg",
          "type": "bool"
        },
        {
          "internalType": "uint256",
          "name": "endTime",
          "type": "uint256"
        }
      ],
      "stateMutability": "view",
      "type": "function",
      "constant": true
    },
    {
      "inputs": [],
      "name": "auctionsLen",
      "outputs": [
        {
          "internalType": "uint256",
          "name": "",
          "type": "uint256"
        }
      ],
      "stateMutability": "view",
      "type": "function",
      "constant": true
    },
    {
      "inputs": [
        {
          "internalType": "uint256",
          "name": "",
          "type": "uint256"
        }
      ],
      "name": "goods",
      "outputs": [
        {
          "internalType": "uint256",
          "name": "gid",
          "type": "uint256"
        },
        {
          "internalType": "string",
          "name": "name",
          "type": "string"
        },
        {
          "internalType": "bool",
          "name": "used",
          "type": "bool"
        },
        {
          "internalType": "string",
          "name": "picsHash",
          "type": "string"
        },
        {
          "internalType": "string",
          "name": "intro",
          "type": "string"
        },
        {
          "internalType": "address",
          "name": "owner",
          "type": "address"
        },
        {
          "internalType": "string",
          "name": "brand",
          "type": "string"
        },
        {
          "internalType": "enum OpenAuction.ItemCondition",
          "name": "condition",
          "type": "uint8"
        }
      ],
      "stateMutability": "view",
      "type": "function",
      "constant": true
    },
    {
      "inputs": [],
      "name": "goodsLen",
      "outputs": [
        {
          "internalType": "uint256",
          "name": "",
          "type": "uint256"
        }
      ],
      "stateMutability": "view",
      "type": "function",
      "constant": true
    },
    {
      "inputs": [
        {
          "internalType": "address payable",
          "name": "beneficiary",
          "type": "address"
        },
        {
          "internalType": "string",
          "name": "title",
          "type": "string"
        },
        {
          "internalType": "string",
          "name": "info",
          "type": "string"
        },
        {
          "internalType": "uint256",
          "name": "amountStart",
          "type": "uint256"
        },
        {
          "internalType": "uint256",
          "name": "endTime",
          "type": "uint256"
        },
        {
          "internalType": "uint256",
          "name": "_bond",
          "type": "uint256"
        },
        {
          "internalType": "bool",
          "name": "used",
          "type": "bool"
        },
        {
          "internalType": "string",
          "name": "brand",
          "type": "string"
        },
        {
          "internalType": "string",
          "name": "picsHash",
          "type": "string"
        },
        {
          "internalType": "string",
          "name": "name",
          "type": "string"
        },
        {
          "internalType": "string",
          "name": "intro",
          "type": "string"
        }
      ],
      "name": "newAuctionStart",
      "outputs": [
        {
          "internalType": "uint256",
          "name": "",
          "type": "uint256"
        }
      ],
      "stateMutability": "payable",
      "type": "function",
      "payable": true
    },
    {
      "inputs": [
        {
          "internalType": "uint256",
          "name": "gid",
          "type": "uint256"
        }
      ],
      "name": "searchGoodBelongAuction",
      "outputs": [
        {
          "internalType": "uint256",
          "name": "",
          "type": "uint256"
        }
      ],
      "stateMutability": "view",
      "type": "function",
      "constant": true
    },
    {
      "inputs": [
        {
          "internalType": "uint256",
          "name": "gid",
          "type": "uint256"
        },
        {
          "internalType": "address payable",
          "name": "beneficiary",
          "type": "address"
        },
        {
          "internalType": "string",
          "name": "title",
          "type": "string"
        },
        {
          "internalType": "string",
          "name": "info",
          "type": "string"
        },
        {
          "internalType": "string",
          "name": "picsHash",
          "type": "string"
        },
        {
          "internalType": "uint256",
          "name": "amountStart",
          "type": "uint256"
        },
        {
          "internalType": "uint256",
          "name": "endTime",
          "type": "uint256"
        },
        {
          "internalType": "uint256",
          "name": "_bond",
          "type": "uint256"
        }
      ],
      "name": "reAuctionStart",
      "outputs": [
        {
          "internalType": "uint256",
          "name": "",
          "type": "uint256"
        }
      ],
      "stateMutability": "payable",
      "type": "function",
      "payable": true
    },
    {
      "inputs": [
        {
          "internalType": "uint256",
          "name": "id",
          "type": "uint256"
        }
      ],
      "name": "getAuctionCondition",
      "outputs": [
        {
          "internalType": "enum OpenAuction.ItemCondition",
          "name": "",
          "type": "uint8"
        }
      ],
      "stateMutability": "view",
      "type": "function",
      "constant": true
    },
    {
      "inputs": [
        {
          "internalType": "uint256",
          "name": "id",
          "type": "uint256"
        }
      ],
      "name": "bid",
      "outputs": [],
      "stateMutability": "payable",
      "type": "function",
      "payable": true
    },
    {
      "inputs": [
        {
          "internalType": "uint256",
          "name": "id",
          "type": "uint256"
        },
        {
          "internalType": "uint256",
          "name": "num",
          "type": "uint256"
        }
      ],
      "name": "getOneAuctionBidInfo",
      "outputs": [
        {
          "internalType": "address",
          "name": "addr",
          "type": "address"
        },
        {
          "internalType": "uint256",
          "name": "bidAmount",
          "type": "uint256"
        },
        {
          "internalType": "uint256",
          "name": "bidTime",
          "type": "uint256"
        }
      ],
      "stateMutability": "view",
      "type": "function",
      "constant": true
    },
    {
      "inputs": [
        {
          "internalType": "address",
          "name": "addr",
          "type": "address"
        },
        {
          "internalType": "uint256",
          "name": "id",
          "type": "uint256"
        }
      ],
      "name": "getMyBidAmount",
      "outputs": [
        {
          "internalType": "uint256",
          "name": "",
          "type": "uint256"
        }
      ],
      "stateMutability": "view",
      "type": "function",
      "constant": true
    },
    {
      "inputs": [],
      "name": "getBalance",
      "outputs": [
        {
          "internalType": "uint256",
          "name": "",
          "type": "uint256"
        }
      ],
      "stateMutability": "view",
      "type": "function",
      "constant": true
    },
    {
      "inputs": [
        {
          "internalType": "uint256",
          "name": "id",
          "type": "uint256"
        }
      ],
      "name": "withdrawBond",
      "outputs": [],
      "stateMutability": "nonpayable",
      "type": "function"
    },
    {
      "inputs": [
        {
          "internalType": "uint256",
          "name": "id",
          "type": "uint256"
        }
      ],
      "name": "setAuctionEnd",
      "outputs": [],
      "stateMutability": "nonpayable",
      "type": "function"
    }
  ],
  "bytecode": "0x608060405234801561001057600080fd5b5061250f806100206000396000f3fe6080604052600436106100e85760003560e01c8063571a26a01161008a578063a715941d11610059578063a715941d1461033a578063c3daab9614610377578063c97a55f6146103a0578063e4d13ee9146103cb576100e8565b8063571a26a01461025a5780635ab94de9146102a2578063738ce0ca146102d2578063970d44cb146102fb576100e8565b80632f724394116100c65780632f724394146101805780633bdbbd84146101c45780633dede51114610201578063454a2ab31461023e576100e8565b806312065fe0146100ed5780631816d3441461011857806321a3a95314610155575b600080fd5b3480156100f957600080fd5b506101026103fb565b60405161010f91906120f8565b60405180910390f35b34801561012457600080fd5b5061013f600480360381019061013a9190611cb0565b610403565b60405161014c9190611fd5565b60405180910390f35b34801561016157600080fd5b5061016a61042f565b60405161017791906120f8565b60405180910390f35b34801561018c57600080fd5b506101a760048036038101906101a29190611cb0565b610435565b6040516101bb989796959493929190612113565b60405180910390f35b3480156101d057600080fd5b506101eb60048036038101906101e69190611c74565b6106d7565b6040516101f891906120f8565b60405180910390f35b34801561020d57600080fd5b5061022860048036038101906102239190611cb0565b6107fb565b60405161023591906120f8565b60405180910390f35b61025860048036038101906102539190611cb0565b610813565b005b34801561026657600080fd5b50610281600480360381019061027c9190611cb0565b610b11565b6040516102999c9b9a99989796959493929190611ff0565b60405180910390f35b6102bc60048036038101906102b79190611cd9565b610ce8565b6040516102c991906120f8565b60405180910390f35b3480156102de57600080fd5b506102f960048036038101906102f49190611cb0565b610f5d565b005b34801561030757600080fd5b50610322600480360381019061031d9190611dd3565b6113af565b60405161033193929190611f59565b60405180910390f35b34801561034657600080fd5b50610361600480360381019061035c9190611cb0565b61141a565b60405161036e91906120f8565b60405180910390f35b34801561038357600080fd5b5061039e60048036038101906103999190611cb0565b61146d565b005b3480156103ac57600080fd5b506103b5611681565b6040516103c291906120f8565b60405180910390f35b6103e560048036038101906103e09190611af4565b611687565b6040516103f291906120f8565b60405180910390f35b600047905090565b600080600083815260200190815260200160002060090160019054906101000a900460ff169050919050565b60035481565b600260205280600052604060002060009150905080600001549080600101805461045e90612321565b80601f016020809104026020016040519081016040528092919081815260200182805461048a90612321565b80156104d75780601f106104ac576101008083540402835291602001916104d7565b820191906000526020600020905b8154815290600101906020018083116104ba57829003601f168201915b5050505050908060020160009054906101000a900460ff16908060030180546104ff90612321565b80601f016020809104026020016040519081016040528092919081815260200182805461052b90612321565b80156105785780601f1061054d57610100808354040283529160200191610578565b820191906000526020600020905b81548152906001019060200180831161055b57829003601f168201915b50505050509080600401805461058d90612321565b80601f01602080910402602001604051908101604052809291908181526020018280546105b990612321565b80156106065780601f106105db57610100808354040283529160200191610606565b820191906000526020600020905b8154815290600101906020018083116105e957829003601f168201915b5050505050908060050160009054906101000a900473ffffffffffffffffffffffffffffffffffffffff169080600601805461064190612321565b80601f016020809104026020016040519081016040528092919081815260200182805461066d90612321565b80156106ba5780601f1061068f576101008083540402835291602001916106ba565b820191906000526020600020905b81548152906001019060200180831161069d57829003601f168201915b5050505050908060070160009054906101000a900460ff16905088565b600080600090506000600190505b6000808581526020019081526020016000206007015481116107f0578473ffffffffffffffffffffffffffffffffffffffff16600080868152602001908152602001600020600801600083815260200190815260200160002060000160009054906101000a900473ffffffffffffffffffffffffffffffffffffffff1673ffffffffffffffffffffffffffffffffffffffff1614156107dd578160008086815260200190815260200160002060080160008381526020019081526020016000206001015411156107dc5760008085815260200190815260200160002060080160008281526020019081526020016000206001015491505b5b80806107e890612353565b9150506106e5565b508091505092915050565b60046020528060005260406000206000915090505481565b60003411801561083757506000808281526020019081526020016000206006015434115b80156108585750600080828152602001908152602001600020600201543410155b61086157600080fd5b42600080838152602001908152602001600020600a01541161088257600080fd5b6000151560008083815260200190815260200160002060090160029054906101000a900460ff161515146108b557600080fd5b600080600083815260200190815260200160002060060154146109645760008082815260200190815260200160002060050160009054906101000a900473ffffffffffffffffffffffffffffffffffffffff1673ffffffffffffffffffffffffffffffffffffffff166108fc600080848152602001908152602001600020600601549081150290604051600060405180830381858888f19350505050158015610962573d6000803e3d6000fd5b505b60008060008381526020019081526020016000209050338160050160006101000a81548173ffffffffffffffffffffffffffffffffffffffff021916908373ffffffffffffffffffffffffffffffffffffffff16021790555034816006018190555060018160090160016101000a81548160ff02191690836005811115610a14577f4e487b7100000000000000000000000000000000000000000000000000000000600052602160045260246000fd5b0217905550806007016000815480929190610a2e90612353565b9190505550338160080160008360070154815260200190815260200160002060000160006101000a81548173ffffffffffffffffffffffffffffffffffffffff021916908373ffffffffffffffffffffffffffffffffffffffff1602179055503481600801600083600701548152602001908152602001600020600101819055504281600801600083600701548152602001908152602001600020600201819055507f3d6cfbcf4e2da00c4fb84f4a866f8817880609fc65411a5441a0dd16240ffb5d33344285604051610b059493929190611f90565b60405180910390a15050565b6000602052806000526040600020600091509050806000018054610b3490612321565b80601f0160208091040260200160405190810160405280929190818152602001828054610b6090612321565b8015610bad5780601f10610b8257610100808354040283529160200191610bad565b820191906000526020600020905b815481529060010190602001808311610b9057829003601f168201915b505050505090806001018054610bc290612321565b80601f0160208091040260200160405190810160405280929190818152602001828054610bee90612321565b8015610c3b5780601f10610c1057610100808354040283529160200191610c3b565b820191906000526020600020905b815481529060010190602001808311610c1e57829003601f168201915b5050505050908060020154908060030154908060040160009054906101000a900473ffffffffffffffffffffffffffffffffffffffff16908060050160009054906101000a900473ffffffffffffffffffffffffffffffffffffffff16908060060154908060070154908060090160009054906101000a900460ff16908060090160019054906101000a900460ff16908060090160029054906101000a900460ff169080600a015490508c565b6000428311610cf657600080fd5b60008411610d0357600080fd5b6000341015610d1157600080fd5b6001600260008b815260200190815260200160002060020160006101000a81548160ff02191690831515021790555060016000815480929190610d5390612353565b9190505550600080600060015481526020019081526020016000209050888160040160006101000a81548173ffffffffffffffffffffffffffffffffffffffff021916908373ffffffffffffffffffffffffffffffffffffffff16021790555087816000019080519060200190610dcb929190611995565b5086816001019080519060200190610de4929190611995565b5084816002018190555060008160070181905550600081600601819055508381600a018190555060018160090160006101000a81548160ff02191690831515021790555060008160090160026101000a81548160ff02191690831515021790555060038160090160016101000a81548160ff02191690836005811115610e93577f4e487b7100000000000000000000000000000000000000000000000000000000600052602160045260246000fd5b02179055508281600301819055506001600260008c815260200190815260200160002060070160006101000a81548160ff02191690836005811115610f01577f4e487b7100000000000000000000000000000000000000000000000000000000600052602160045260246000fd5b021790555085600260008c81526020019081526020016000206003019080519060200190610f30929190611995565b50896004600060015481526020019081526020016000208190555060015491505098975050505050505050565b600080828152602001908152602001600020600a0154421015610fb5576040517f08c379a0000000000000000000000000000000000000000000000000000000008152600401610fac906120d8565b60405180910390fd5b3373ffffffffffffffffffffffffffffffffffffffff1660008083815260200190815260200160002060050160009054906101000a900473ffffffffffffffffffffffffffffffffffffffff1673ffffffffffffffffffffffffffffffffffffffff161461102257600080fd5b60008082815260200190815260200160002060090160029054906101000a900460ff1615611085576040517f08c379a000000000000000000000000000000000000000000000000000000000815260040161107c906120b8565b60405180910390fd5b600160008083815260200190815260200160002060090160026101000a81548160ff021916908315150217905550600460008083815260200190815260200160002060090160016101000a81548160ff02191690836005811115611112577f4e487b7100000000000000000000000000000000000000000000000000000000600052602160045260246000fd5b02179055507fc358e8e3f205b5e7453abd5cbac388ca4552b887b69001bc972b88610c74903560008083815260200190815260200160002060050160009054906101000a900473ffffffffffffffffffffffffffffffffffffffff16600080848152602001908152602001600020600601548360405161119493929190611f22565b60405180910390a160008082815260200190815260200160002060040160009054906101000a900473ffffffffffffffffffffffffffffffffffffffff1673ffffffffffffffffffffffffffffffffffffffff166108fc600080848152602001908152602001600020600601549081150290604051600060405180830381858888f1935050505015801561122c573d6000803e3d6000fd5b5060008082815260200190815260200160002060040160009054906101000a900473ffffffffffffffffffffffffffffffffffffffff1673ffffffffffffffffffffffffffffffffffffffff166108fc600080848152602001908152602001600020600301549081150290604051600060405180830381858888f193505050501580156112bd573d6000803e3d6000fd5b50600080600083815260200190815260200160002060030181905550600060046000838152602001908152602001600020549050336002600083815260200190815260200160002060050160006101000a81548173ffffffffffffffffffffffffffffffffffffffff021916908373ffffffffffffffffffffffffffffffffffffffff16021790555060006002600083815260200190815260200160002060070160006101000a81548160ff021916908360058111156113a6577f4e487b7100000000000000000000000000000000000000000000000000000000600052602160045260246000fd5b02179055505050565b600080600080600080878152602001908152602001600020600801600086815260200190815260200160002090508060000160009054906101000a900473ffffffffffffffffffffffffffffffffffffffff1681600101548260020154935093509350509250925092565b6000806000600190505b600154811161146357836004600083815260200190815260200160002054141561145057809150611463565b808061145b90612353565b915050611424565b5080915050919050565b60008082815260200190815260200160002060040160009054906101000a900473ffffffffffffffffffffffffffffffffffffffff1673ffffffffffffffffffffffffffffffffffffffff163373ffffffffffffffffffffffffffffffffffffffff16146114da57600080fd5b600080828152602001908152602001600020600a0154421015611532576040517f08c379a0000000000000000000000000000000000000000000000000000000008152600401611529906120d8565b60405180910390fd5b6000806000838152602001908152602001600020600601541461155457600080fd5b60008082815260200190815260200160002060040160009054906101000a900473ffffffffffffffffffffffffffffffffffffffff1673ffffffffffffffffffffffffffffffffffffffff166108fc600080848152602001908152602001600020600301549081150290604051600060405180830381858888f193505050501580156115e4573d6000803e3d6000fd5b5060008060008381526020019081526020016000206003018190555060006004600083815260200190815260200160002054905060006002600083815260200190815260200160002060070160006101000a81548160ff02191690836005811115611678577f4e487b7100000000000000000000000000000000000000000000000000000000600052602160045260246000fd5b02179055505050565b60015481565b600042881161169557600080fd5b600089116116a257600080fd5b60003410156116b057600080fd5b600160008154809291906116c390612353565b91905055506000806000600154815260200190815260200160002090508c8160040160006101000a81548173ffffffffffffffffffffffffffffffffffffffff021916908373ffffffffffffffffffffffffffffffffffffffff1602179055508b81600001908051906020019061173b929190611995565b508a816001019080519060200190611754929190611995565b5089816002018190555060008160070181905550600081600601819055508881600a018190555060018160090160006101000a81548160ff02191690831515021790555060008160090160026101000a81548160ff02191690831515021790555060038160090160016101000a81548160ff02191690836005811115611803577f4e487b7100000000000000000000000000000000000000000000000000000000600052602160045260246000fd5b02179055508781600301819055506003600081548092919061182490612353565b919050555060006002600060035481526020019081526020016000209050600354816000018190555084816001019080519060200190611865929190611995565b50878160020160006101000a81548160ff0219169083151502179055508581600301908051906020019061189a929190611995565b50868160060190805190602001906118b3929190611995565b50338160050160006101000a81548173ffffffffffffffffffffffffffffffffffffffff021916908373ffffffffffffffffffffffffffffffffffffffff1602179055508381600401908051906020019061190f929190611995565b5060018160070160006101000a81548160ff0219169083600581111561195e577f4e487b7100000000000000000000000000000000000000000000000000000000600052602160045260246000fd5b021790555060035460046000600154815260200190815260200160002081905550600154925050509b9a5050505050505050505050565b8280546119a190612321565b90600052602060002090601f0160209004810192826119c35760008555611a0a565b82601f106119dc57805160ff1916838001178555611a0a565b82800160010185558215611a0a579182015b82811115611a095782518255916020019190600101906119ee565b5b509050611a179190611a1b565b5090565b5b80821115611a34576000816000905550600101611a1c565b5090565b6000611a4b611a46846121de565b6121ad565b905082815260208101848484011115611a6357600080fd5b611a6e8482856122df565b509392505050565b600081359050611a858161247d565b92915050565b600081359050611a9a81612494565b92915050565b600081359050611aaf816124ab565b92915050565b600082601f830112611ac657600080fd5b8135611ad6848260208601611a38565b91505092915050565b600081359050611aee816124c2565b92915050565b60008060008060008060008060008060006101608c8e031215611b1657600080fd5b6000611b248e828f01611a8b565b9b505060208c013567ffffffffffffffff811115611b4157600080fd5b611b4d8e828f01611ab5565b9a505060408c013567ffffffffffffffff811115611b6a57600080fd5b611b768e828f01611ab5565b9950506060611b878e828f01611adf565b9850506080611b988e828f01611adf565b97505060a0611ba98e828f01611adf565b96505060c0611bba8e828f01611aa0565b95505060e08c013567ffffffffffffffff811115611bd757600080fd5b611be38e828f01611ab5565b9450506101008c013567ffffffffffffffff811115611c0157600080fd5b611c0d8e828f01611ab5565b9350506101208c013567ffffffffffffffff811115611c2b57600080fd5b611c378e828f01611ab5565b9250506101408c013567ffffffffffffffff811115611c5557600080fd5b611c618e828f01611ab5565b9150509295989b509295989b9093969950565b60008060408385031215611c8757600080fd5b6000611c9585828601611a76565b9250506020611ca685828601611adf565b9150509250929050565b600060208284031215611cc257600080fd5b6000611cd084828501611adf565b91505092915050565b600080600080600080600080610100898b031215611cf657600080fd5b6000611d048b828c01611adf565b9850506020611d158b828c01611a8b565b975050604089013567ffffffffffffffff811115611d3257600080fd5b611d3e8b828c01611ab5565b965050606089013567ffffffffffffffff811115611d5b57600080fd5b611d678b828c01611ab5565b955050608089013567ffffffffffffffff811115611d8457600080fd5b611d908b828c01611ab5565b94505060a0611da18b828c01611adf565b93505060c0611db28b828c01611adf565b92505060e0611dc38b828c01611adf565b9150509295985092959890939650565b60008060408385031215611de657600080fd5b6000611df485828601611adf565b9250506020611e0585828601611adf565b9150509250929050565b611e1881612297565b82525050565b611e278161223c565b82525050565b611e368161222a565b82525050565b611e458161224e565b82525050565b611e54816122a9565b82525050565b6000611e658261220e565b611e6f8185612219565b9350611e7f8185602086016122ee565b611e8881612458565b840191505092915050565b6000611ea0601583612219565b91507f61756374696f6e20616c726561647920656e64656400000000000000000000006000830152602082019050919050565b6000611ee0601583612219565b91507f61756374696f6e206e6f742079657420656e64656400000000000000000000006000830152602082019050919050565b611f1c8161228d565b82525050565b6000606082019050611f376000830186611e0f565b611f446020830185611f13565b611f516040830184611f13565b949350505050565b6000606082019050611f6e6000830186611e2d565b611f7b6020830185611f13565b611f886040830184611f13565b949350505050565b6000608082019050611fa56000830187611e2d565b611fb26020830186611f13565b611fbf6040830185611f13565b611fcc6060830184611f13565b95945050505050565b6000602082019050611fea6000830184611e4b565b92915050565b600061018082019050818103600083015261200b818f611e5a565b9050818103602083015261201f818e611e5a565b905061202e604083018d611f13565b61203b606083018c611f13565b612048608083018b611e1e565b61205560a083018a611e1e565b61206260c0830189611f13565b61206f60e0830188611f13565b61207d610100830187611e3c565b61208b610120830186611e4b565b612099610140830185611e3c565b6120a7610160830184611f13565b9d9c50505050505050505050505050565b600060208201905081810360008301526120d181611e93565b9050919050565b600060208201905081810360008301526120f181611ed3565b9050919050565b600060208201905061210d6000830184611f13565b92915050565b600061010082019050612129600083018b611f13565b818103602083015261213b818a611e5a565b905061214a6040830189611e3c565b818103606083015261215c8188611e5a565b905081810360808301526121708187611e5a565b905061217f60a0830186611e2d565b81810360c08301526121918185611e5a565b90506121a060e0830184611e4b565b9998505050505050505050565b6000604051905081810181811067ffffffffffffffff821117156121d4576121d3612429565b5b8060405250919050565b600067ffffffffffffffff8211156121f9576121f8612429565b5b601f19601f8301169050602081019050919050565b600081519050919050565b600082825260208201905092915050565b60006122358261226d565b9050919050565b60006122478261226d565b9050919050565b60008115159050919050565b600081905061226882612469565b919050565b600073ffffffffffffffffffffffffffffffffffffffff82169050919050565b6000819050919050565b60006122a2826122bb565b9050919050565b60006122b48261225a565b9050919050565b60006122c6826122cd565b9050919050565b60006122d88261226d565b9050919050565b82818337600083830152505050565b60005b8381101561230c5780820151818401526020810190506122f1565b8381111561231b576000848401525b50505050565b6000600282049050600182168061233957607f821691505b6020821081141561234d5761234c6123fa565b5b50919050565b600061235e8261228d565b91507fffffffffffffffffffffffffffffffffffffffffffffffffffffffffffffffff8214156123915761239061239c565b5b600182019050919050565b7f4e487b7100000000000000000000000000000000000000000000000000000000600052601160045260246000fd5b7f4e487b7100000000000000000000000000000000000000000000000000000000600052602160045260246000fd5b7f4e487b7100000000000000000000000000000000000000000000000000000000600052602260045260246000fd5b7f4e487b7100000000000000000000000000000000000000000000000000000000600052604160045260246000fd5b6000601f19601f8301169050919050565b6006811061247a576124796123cb565b5b50565b6124868161222a565b811461249157600080fd5b50565b61249d8161223c565b81146124a857600080fd5b50565b6124b48161224e565b81146124bf57600080fd5b50565b6124cb8161228d565b81146124d657600080fd5b5056fea2646970667358221220b8d4f8852e1872ab1fe1c925411f1b1221b15f6bab91248b10b8f27f14ef643e64736f6c63430008000033",
  "immutableReferences": {},
  "source": "// SPDX-License-Identifier: MIT\npragma solidity ^0.8.0;\n\ncontract OpenAuction {\n\n\n    // \n    struct Bidder {\n        address payable addr;      // \n        uint bidAmount;            // \n        uint bidTime;              // \n    }\n\n    struct Good {\n        uint gid;\n        string name;\n        bool used;\n        string picsHash;\n        string intro;\n        address owner;\n        string brand;\n        ItemCondition condition;\n    }\n    struct Auction {\n        string title;                                   //\n        string info;                                    //\n        uint  amountStart;                              //\n        uint  bond;                                     //\n        address payable beneficiary;                    //\n        address payable highestBidder;                  //\n        uint  highestBid;                               //\n        uint numBidders;                                //\n        mapping(uint => Bidder) Bidders;                //\n        bool startFlg;                                  //\n        ItemCondition condition;                        //\n        bool endFlg;                                    //\n        uint endTime;                                   //\n    }\n    // \n    enum ItemCondition {\n        free,\n        Bidding,                    //\n        nobodyBid,                  //   \n        noYetBid,                   //  (0)\n        successedAuction,           // \n        inRoad                      //\n    }\n\n    mapping(uint => Auction) public auctions;           // \n    uint public auctionsLen;                            // \n    mapping(uint => Good) public goods;                 // id\n    uint public goodsLen;                               // \n    mapping(uint => uint) public auctionBoundGood;      // \n\n    event HighestBidIncreased(address bidder, uint bidAmount, uint bidTime, uint id);\n    event AuctionEnded(address winner, uint amount, uint id);\n\n    //\n    function newAuctionStart (\n        address payable beneficiary,\n        string memory title,\n        string memory info,\n        uint amountStart,\n        uint endTime,\n        uint _bond,\n        bool used,\n        string memory brand,\n        string memory picsHash,\n        string memory name,\n        string memory intro\n    )\n    public payable\n    returns(uint) {\n\n        //02*0\n        require(endTime > block.timestamp);\n        require(amountStart > 0);\n        require(msg.value >= 2*0);\n        auctionsLen++;\n        Auction storage a = auctions[auctionsLen];\n        a.beneficiary = beneficiary;\n        a.title = title;\n        a.info = info;\n        a.amountStart = amountStart;\n        a.numBidders = 0;\n        a.highestBid = 0;\n        a.endTime = endTime;\n        a.startFlg = true;\n        a.endFlg = false;\n        a.condition = ItemCondition.noYetBid;\n        a.bond = _bond;\n\n        goodsLen++;\n        Good storage g = goods[goodsLen];\n        g.gid = goodsLen;\n        g.name = name;\n        g.used = used;\n        g.picsHash = picsHash;\n        g.brand = brand;\n        g.owner = msg.sender;\n        g.intro = intro;\n        g.condition = ItemCondition.Bidding;\n        auctionBoundGood[auctionsLen] = goodsLen;\n        return auctionsLen;\n    }\n    //bu'g\n    function searchGoodBelongAuction(uint gid) public view returns(uint) {\n        uint aid;\n        for(uint i = 1; i <=auctionsLen; i++) {\n            if(auctionBoundGood[i] == gid) {\n                aid = i;\n                break;\n            }\n        }\n        return aid;\n    }\n    //\n    function reAuctionStart(\n        uint gid,\n        address payable beneficiary,\n        string memory title,\n        string memory info,\n        string memory picsHash,\n        uint amountStart,\n        uint endTime,\n        uint _bond)\n    public payable returns(uint) {\n        //02*0\n        require(endTime > block.timestamp);\n        require(amountStart > 0);\n        require(msg.value >= 2*0);\n        //\n        goods[gid].used = true;\n        //\n        auctionsLen++;\n        Auction storage a = auctions[auctionsLen];\n        a.beneficiary = beneficiary;\n        a.title = title;\n        a.info = info;\n        a.amountStart = amountStart;\n        a.numBidders = 0;\n        a.highestBid = 0;\n        a.endTime = endTime;\n        a.startFlg = true;\n        a.endFlg = false;\n        a.condition = ItemCondition.noYetBid;\n        a.bond = _bond;\n        goods[gid].condition = ItemCondition.Bidding;\n        goods[gid].picsHash = picsHash;\n        //\n        auctionBoundGood[auctionsLen] = gid;\n        return auctionsLen;\n    }\n    function getAuctionCondition(uint id) public view returns(ItemCondition) {\n        return(auctions[id].condition);\n    }\n    function bid (uint id) public payable {\n        //0\n        require(msg.value > 0 && msg.value > auctions[id].highestBid && msg.value >= auctions[id].amountStart);\n        require(auctions[id].endTime > block.timestamp);\n        require(auctions[id].endFlg == false);\n\n        //0\n        //0\n        //\n        if (auctions[id].highestBid != 0) {\n            auctions[id].highestBidder.transfer(auctions[id].highestBid);\n        }\n        Auction storage a = auctions[id];\n        //\n        a.highestBidder = payable(msg.sender);\n        a.highestBid = msg.value;\n        a.condition = ItemCondition.Bidding;\n        a.numBidders++;\n        a.Bidders[a.numBidders].addr = payable(msg.sender);\n        a.Bidders[a.numBidders].bidAmount = msg.value;\n        a.Bidders[a.numBidders].bidTime = block.timestamp;\n        emit HighestBidIncreased(msg.sender, msg.value, block.timestamp, id);\n\n    }\n    //\n    function getOneAuctionBidInfo(uint id, uint num)\n    public view returns (address addr, uint bidAmount, uint bidTime) {\n        Bidder storage b = auctions[id].Bidders[num];\n        return (b.addr, b.bidAmount, b.bidTime);\n    }\n    function getMyBidAmount(address addr, uint id) public view returns (uint) {\n        uint maxn = 0;\n        for(uint i = 1; i <= auctions[id].numBidders; i++) {\n            //auction\n            if(auctions[id].Bidders[i].addr == addr) {\n                //\n                if(auctions[id].Bidders[i].bidAmount > maxn) {\n                    maxn = auctions[id].Bidders[i].bidAmount;\n                }\n            }\n        }\n        return maxn;\n    }\n\n    function getBalance() public view returns (uint) {\n        return address(this).balance;\n    }\n\n    //\n    function withdrawBond(uint id) public {\n        //msgsender\n        require(msg.sender == auctions[id].beneficiary);\n        //\n        require(block.timestamp >= auctions[id].endTime, \"auction not yet ended\");\n        //\n        require(auctions[id].highestBid == 0);\n        //\n        auctions[id].beneficiary.transfer(auctions[id].bond);\n        auctions[id].bond = 0;\n        uint gid = auctionBoundGood[id];\n        goods[gid].condition = ItemCondition.free;\n    }\n    //\n    function setAuctionEnd(uint id) public {\n        //  \n        require(block.timestamp >= auctions[id].endTime, \"auction not yet ended\");\n        require(auctions[id].highestBidder == msg.sender);\n        require(!auctions[id].endFlg, \"auction already ended\");\n        //\n        auctions[id].endFlg = true;\n        auctions[id].condition = ItemCondition.successedAuction;\n        emit AuctionEnded(auctions[id].highestBidder, auctions[id].highestBid, id);\n        //\n        auctions[id].beneficiary.transfer(auctions[id].highestBid);\n        //\n        auctions[id].beneficiary.transfer(auctions[id].bond);\n        auctions[id].bond = 0;\n        //\n        uint gid = auctionBoundGood[id];\n        goods[gid].owner = msg.sender;\n        goods[gid].condition = ItemCondition.free;\n    }\n\n}\n",
  "sourcePath": "/Users/kai/Downloads/DappAuctionKaiFu/contracts/OpenAuction.sol",
  "compiler": {
    "name": "solc",
    "version": "0.8.0+commit.c7dfd78e.Emscripten.clang"
  },
  "schemaVersion": "3.4.3",
  "updatedAt": "2021-12-04T14:50:23.825Z",
  "networkType": "ethereum",
  "devdoc": {
    "kind": "dev",
    "methods": {},
    "version": 1
  },
  "userdoc": {
    "kind": "user",
    "methods": {},
    "version": 1
  }
}