{
  "contractName": "OpenAuction",
  "abi": [
    {
      "anonymous": false,
      "inputs": [
        {
          "indexed": false,
          "internalType": "address",
          "name": "winner",
          "type": "address"
        },
        {
          "indexed": false,
          "internalType": "uint256",
          "name": "amount",
          "type": "uint256"
        },
        {
          "indexed": false,
          "internalType": "uint256",
          "name": "id",
          "type": "uint256"
        }
      ],
      "name": "AuctionEnded",
      "type": "event"
    },
    {
      "anonymous": false,
      "inputs": [
        {
          "indexed": false,
          "internalType": "address",
          "name": "bidder",
          "type": "address"
        },
        {
          "indexed": false,
          "internalType": "uint256",
          "name": "bidAmount",
          "type": "uint256"
        },
        {
          "indexed": false,
          "internalType": "uint256",
          "name": "bidTime",
          "type": "uint256"
        },
        {
          "indexed": false,
          "internalType": "uint256",
          "name": "id",
          "type": "uint256"
        }
      ],
      "name": "HighestBidIncreased",
      "type": "event"
    },
    {
      "inputs": [
        {
          "internalType": "uint256",
          "name": "",
          "type": "uint256"
        }
      ],
      "name": "auctions",
      "outputs": [
        {
          "internalType": "string",
          "name": "title",
          "type": "string"
        },
        {
          "internalType": "string",
          "name": "info",
          "type": "string"
        },
        {
          "internalType": "uint256",
          "name": "amountStart",
          "type": "uint256"
        },
        {
          "internalType": "uint256",
          "name": "bond",
          "type": "uint256"
        },
        {
          "internalType": "address payable",
          "name": "beneficiary",
          "type": "address"
        },
        {
          "internalType": "address payable",
          "name": "highestBidder",
          "type": "address"
        },
        {
          "internalType": "uint256",
          "name": "highestBid",
          "type": "uint256"
        },
        {
          "internalType": "uint256",
          "name": "numBidders",
          "type": "uint256"
        },
        {
          "internalType": "bool",
          "name": "startFlg",
          "type": "bool"
        },
        {
          "internalType": "enum OpenAuction.ItemCondition",
          "name": "condition",
          "type": "uint8"
        },
        {
          "internalType": "bool",
          "name": "endFlg",
          "type": "bool"
        },
        {
          "internalType": "uint256",
          "name": "endTime",
          "type": "uint256"
        }
      ],
      "stateMutability": "view",
      "type": "function",
      "constant": true
    },
    {
      "inputs": [],
      "name": "auctionsLen",
      "outputs": [
        {
          "internalType": "uint256",
          "name": "",
          "type": "uint256"
        }
      ],
      "stateMutability": "view",
      "type": "function",
      "constant": true
    },
    {
      "inputs": [
        {
          "internalType": "address payable",
          "name": "beneficiary",
          "type": "address"
        },
        {
          "internalType": "string",
          "name": "title",
          "type": "string"
        },
        {
          "internalType": "string",
          "name": "info",
          "type": "string"
        },
        {
          "internalType": "uint256",
          "name": "amountStart",
          "type": "uint256"
        },
        {
          "internalType": "uint256",
          "name": "endTime",
          "type": "uint256"
        }
      ],
      "name": "newAuctionStart",
      "outputs": [
        {
          "internalType": "uint256",
          "name": "",
          "type": "uint256"
        }
      ],
      "stateMutability": "payable",
      "type": "function",
      "payable": true
    },
    {
      "inputs": [
        {
          "internalType": "uint256",
          "name": "id",
          "type": "uint256"
        }
      ],
      "name": "getAuctionCondition",
      "outputs": [
        {
          "internalType": "enum OpenAuction.ItemCondition",
          "name": "",
          "type": "uint8"
        }
      ],
      "stateMutability": "view",
      "type": "function",
      "constant": true
    },
    {
      "inputs": [
        {
          "internalType": "uint256",
          "name": "id",
          "type": "uint256"
        }
      ],
      "name": "bid",
      "outputs": [],
      "stateMutability": "payable",
      "type": "function",
      "payable": true
    },
    {
      "inputs": [
        {
          "internalType": "uint256",
          "name": "id",
          "type": "uint256"
        }
      ],
      "name": "getBiddersNum",
      "outputs": [
        {
          "internalType": "uint256",
          "name": "",
          "type": "uint256"
        }
      ],
      "stateMutability": "view",
      "type": "function",
      "constant": true
    },
    {
      "inputs": [
        {
          "internalType": "uint256",
          "name": "id",
          "type": "uint256"
        },
        {
          "internalType": "uint256",
          "name": "num",
          "type": "uint256"
        }
      ],
      "name": "getOneAuctionBidInfo",
      "outputs": [
        {
          "internalType": "address",
          "name": "addr",
          "type": "address"
        },
        {
          "internalType": "uint256",
          "name": "bidAmount",
          "type": "uint256"
        },
        {
          "internalType": "uint256",
          "name": "bidTime",
          "type": "uint256"
        }
      ],
      "stateMutability": "view",
      "type": "function",
      "constant": true
    },
    {
      "inputs": [
        {
          "internalType": "address",
          "name": "addr",
          "type": "address"
        },
        {
          "internalType": "uint256",
          "name": "id",
          "type": "uint256"
        }
      ],
      "name": "getMyBidAmount",
      "outputs": [
        {
          "internalType": "uint256",
          "name": "",
          "type": "uint256"
        }
      ],
      "stateMutability": "view",
      "type": "function",
      "constant": true
    },
    {
      "inputs": [],
      "name": "getBalance",
      "outputs": [
        {
          "internalType": "uint256",
          "name": "",
          "type": "uint256"
        }
      ],
      "stateMutability": "view",
      "type": "function",
      "constant": true
    },
    {
      "inputs": [
        {
          "internalType": "uint256",
          "name": "id",
          "type": "uint256"
        }
      ],
      "name": "withdrawBond",
      "outputs": [],
      "stateMutability": "nonpayable",
      "type": "function"
    },
    {
      "inputs": [
        {
          "internalType": "uint256",
          "name": "id",
          "type": "uint256"
        }
      ],
      "name": "setAuctionEnd",
      "outputs": [],
      "stateMutability": "nonpayable",
      "type": "function"
    }
  ],
  "bytecode": "0x608060405234801561001057600080fd5b506119c5806100206000396000f3fe60806040526004361061009c5760003560e01c8063571a26a011610064578063571a26a01461019f578063738ce0ca146101e7578063970d44cb14610210578063bf1c22a81461024f578063c3daab961461027f578063c97a55f6146102a85761009c565b806312065fe0146100a15780631816d344146100cc5780631b452fc5146101095780633bdbbd8414610146578063454a2ab314610183575b600080fd5b3480156100ad57600080fd5b506100b66102d3565b6040516100c3919061158d565b60405180910390f35b3480156100d857600080fd5b506100f360048036038101906100ee9190611279565b6102db565b604051610100919061146a565b60405180910390f35b34801561011557600080fd5b50610130600480360381019061012b9190611279565b610308565b60405161013d919061158d565b60405180910390f35b34801561015257600080fd5b5061016d6004803603810190610168919061123d565b610328565b60405161017a919061158d565b60405180910390f35b61019d60048036038101906101989190611279565b610450565b005b3480156101ab57600080fd5b506101c660048036038101906101c19190611279565b610756565b6040516101de9c9b9a99989796959493929190611485565b60405180910390f35b3480156101f357600080fd5b5061020e60048036038101906102099190611279565b61092d565b005b34801561021c57600080fd5b50610237600480360381019061023291906112a2565b610c9b565b604051610246939291906113ee565b60405180910390f35b61026960048036038101906102649190611196565b610d07565b604051610276919061158d565b60405180910390f35b34801561028b57600080fd5b506102a660048036038101906102a19190611279565b610eaa565b005b3480156102b457600080fd5b506102bd611046565b6040516102ca919061158d565b60405180910390f35b600047905090565b60006001600083815260200190815260200160002060090160019054906101000a900460ff169050919050565b600060016000838152602001908152602001600020600701549050919050565b600080600090506000600190505b60016000858152602001908152602001600020600701548111610445578473ffffffffffffffffffffffffffffffffffffffff1660016000868152602001908152602001600020600801600083815260200190815260200160002060000160009054906101000a900473ffffffffffffffffffffffffffffffffffffffff1673ffffffffffffffffffffffffffffffffffffffff1614156104325781600160008681526020019081526020016000206008016000838152602001908152602001600020600101541115610431576001600085815260200190815260200160002060080160008281526020019081526020016000206001015491505b5b808061043d906117ce565b915050610336565b508091505092915050565b6000341180156104755750600160008281526020019081526020016000206006015434115b8015610497575060016000828152602001908152602001600020600201543410155b6104a057600080fd5b4260016000838152602001908152602001600020600a0154116104c257600080fd5b600015156001600083815260200190815260200160002060090160029054906101000a900460ff161515146104f657600080fd5b60006001600083815260200190815260200160002060060154146105a8576001600082815260200190815260200160002060050160009054906101000a900473ffffffffffffffffffffffffffffffffffffffff1673ffffffffffffffffffffffffffffffffffffffff166108fc60016000848152602001908152602001600020600601549081150290604051600060405180830381858888f193505050501580156105a6573d6000803e3d6000fd5b505b6000600160008381526020019081526020016000209050338160050160006101000a81548173ffffffffffffffffffffffffffffffffffffffff021916908373ffffffffffffffffffffffffffffffffffffffff16021790555034816006018190555060008160090160016101000a81548160ff02191690836004811115610659577f4e487b7100000000000000000000000000000000000000000000000000000000600052602160045260246000fd5b0217905550806007016000815480929190610673906117ce565b9190505550338160080160008360070154815260200190815260200160002060000160006101000a81548173ffffffffffffffffffffffffffffffffffffffff021916908373ffffffffffffffffffffffffffffffffffffffff1602179055503481600801600083600701548152602001908152602001600020600101819055504281600801600083600701548152602001908152602001600020600201819055507f3d6cfbcf4e2da00c4fb84f4a866f8817880609fc65411a5441a0dd16240ffb5d3334428560405161074a9493929190611425565b60405180910390a15050565b60016020528060005260406000206000915090508060000180546107799061176b565b80601f01602080910402602001604051908101604052809291908181526020018280546107a59061176b565b80156107f25780601f106107c7576101008083540402835291602001916107f2565b820191906000526020600020905b8154815290600101906020018083116107d557829003601f168201915b5050505050908060010180546108079061176b565b80601f01602080910402602001604051908101604052809291908181526020018280546108339061176b565b80156108805780601f1061085557610100808354040283529160200191610880565b820191906000526020600020905b81548152906001019060200180831161086357829003601f168201915b5050505050908060020154908060030154908060040160009054906101000a900473ffffffffffffffffffffffffffffffffffffffff16908060050160009054906101000a900473ffffffffffffffffffffffffffffffffffffffff16908060060154908060070154908060090160009054906101000a900460ff16908060090160019054906101000a900460ff16908060090160029054906101000a900460ff169080600a015490508c565b60016000828152602001908152602001600020600a0154421015610986576040517f08c379a000000000000000000000000000000000000000000000000000000000815260040161097d9061156d565b60405180910390fd5b3373ffffffffffffffffffffffffffffffffffffffff166001600083815260200190815260200160002060050160009054906101000a900473ffffffffffffffffffffffffffffffffffffffff1673ffffffffffffffffffffffffffffffffffffffff16146109f457600080fd5b6001600082815260200190815260200160002060090160029054906101000a900460ff1615610a58576040517f08c379a0000000000000000000000000000000000000000000000000000000008152600401610a4f9061154d565b60405180910390fd5b600180600083815260200190815260200160002060090160026101000a81548160ff02191690831515021790555060036001600083815260200190815260200160002060090160016101000a81548160ff02191690836004811115610ae6577f4e487b7100000000000000000000000000000000000000000000000000000000600052602160045260246000fd5b02179055507fc358e8e3f205b5e7453abd5cbac388ca4552b887b69001bc972b88610c7490356001600083815260200190815260200160002060050160009054906101000a900473ffffffffffffffffffffffffffffffffffffffff16600160008481526020019081526020016000206006015483604051610b6a939291906113b7565b60405180910390a16001600082815260200190815260200160002060040160009054906101000a900473ffffffffffffffffffffffffffffffffffffffff1673ffffffffffffffffffffffffffffffffffffffff166108fc60016000848152602001908152602001600020600601549081150290604051600060405180830381858888f19350505050158015610c04573d6000803e3d6000fd5b506001600082815260200190815260200160002060040160009054906101000a900473ffffffffffffffffffffffffffffffffffffffff1673ffffffffffffffffffffffffffffffffffffffff166108fc60016000848152602001908152602001600020600301549081150290604051600060405180830381858888f19350505050158015610c97573d6000803e3d6000fd5b5050565b60008060008060016000878152602001908152602001600020600801600086815260200190815260200160002090508060000160009054906101000a900473ffffffffffffffffffffffffffffffffffffffff1681600101548260020154935093509350509250925092565b6000428211610d1557600080fd5b60008311610d2257600080fd5b60003411610d2f57600080fd5b600080815480929190610d41906117ce565b9190505550600060016000805481526020019081526020016000209050868160040160006101000a81548173ffffffffffffffffffffffffffffffffffffffff021916908373ffffffffffffffffffffffffffffffffffffffff16021790555085816000019080519060200190610db992919061104c565b5084816001019080519060200190610dd292919061104c565b5083816002018190555060008160070181905550600081600601819055508281600a018190555060018160090160006101000a81548160ff02191690831515021790555060008160090160026101000a81548160ff02191690831515021790555060028160090160016101000a81548160ff02191690836004811115610e81577f4e487b7100000000000000000000000000000000000000000000000000000000600052602160045260246000fd5b0217905550836002610e93919061161a565b816003018190555060005491505095945050505050565b6001600082815260200190815260200160002060040160009054906101000a900473ffffffffffffffffffffffffffffffffffffffff1673ffffffffffffffffffffffffffffffffffffffff163373ffffffffffffffffffffffffffffffffffffffff1614610f1857600080fd5b60016000828152602001908152602001600020600a0154421015610f71576040517f08c379a0000000000000000000000000000000000000000000000000000000008152600401610f689061156d565b60405180910390fd5b6000600160008381526020019081526020016000206006015414610f9457600080fd5b6001600082815260200190815260200160002060040160009054906101000a900473ffffffffffffffffffffffffffffffffffffffff1673ffffffffffffffffffffffffffffffffffffffff166108fc60016000848152602001908152602001600020600301549081150290604051600060405180830381858888f19350505050158015611026573d6000803e3d6000fd5b506000600160008381526020019081526020016000206003018190555050565b60005481565b8280546110589061176b565b90600052602060002090601f01602090048101928261107a57600085556110c1565b82601f1061109357805160ff19168380011785556110c1565b828001600101855582156110c1579182015b828111156110c05782518255916020019190600101906110a5565b5b5090506110ce91906110d2565b5090565b5b808211156110eb5760008160009055506001016110d3565b5090565b60006111026110fd846115cd565b6115a8565b90508281526020810184848401111561111a57600080fd5b611125848285611729565b509392505050565b60008135905061113c8161194a565b92915050565b60008135905061115181611961565b92915050565b600082601f83011261116857600080fd5b81356111788482602086016110ef565b91505092915050565b60008135905061119081611978565b92915050565b600080600080600060a086880312156111ae57600080fd5b60006111bc88828901611142565b955050602086013567ffffffffffffffff8111156111d957600080fd5b6111e588828901611157565b945050604086013567ffffffffffffffff81111561120257600080fd5b61120e88828901611157565b935050606061121f88828901611181565b925050608061123088828901611181565b9150509295509295909350565b6000806040838503121561125057600080fd5b600061125e8582860161112d565b925050602061126f85828601611181565b9150509250929050565b60006020828403121561128b57600080fd5b600061129984828501611181565b91505092915050565b600080604083850312156112b557600080fd5b60006112c385828601611181565b92505060206112d485828601611181565b9150509250929050565b6112e7816116e1565b82525050565b6112f681611686565b82525050565b61130581611674565b82525050565b61131481611698565b82525050565b611323816116f3565b82525050565b6000611334826115fe565b61133e8185611609565b935061134e818560208601611738565b611357816118d3565b840191505092915050565b600061136f601583611609565b915061137a826118e4565b602082019050919050565b6000611392601583611609565b915061139d8261190d565b602082019050919050565b6113b1816116d7565b82525050565b60006060820190506113cc60008301866112de565b6113d960208301856113a8565b6113e660408301846113a8565b949350505050565b600060608201905061140360008301866112fc565b61141060208301856113a8565b61141d60408301846113a8565b949350505050565b600060808201905061143a60008301876112fc565b61144760208301866113a8565b61145460408301856113a8565b61146160608301846113a8565b95945050505050565b600060208201905061147f600083018461131a565b92915050565b60006101808201905081810360008301526114a0818f611329565b905081810360208301526114b4818e611329565b90506114c3604083018d6113a8565b6114d0606083018c6113a8565b6114dd608083018b6112ed565b6114ea60a083018a6112ed565b6114f760c08301896113a8565b61150460e08301886113a8565b61151261010083018761130b565b61152061012083018661131a565b61152e61014083018561130b565b61153c6101608301846113a8565b9d9c50505050505050505050505050565b6000602082019050818103600083015261156681611362565b9050919050565b6000602082019050818103600083015261158681611385565b9050919050565b60006020820190506115a260008301846113a8565b92915050565b60006115b26115c3565b90506115be828261179d565b919050565b6000604051905090565b600067ffffffffffffffff8211156115e8576115e76118a4565b5b6115f1826118d3565b9050602081019050919050565b600081519050919050565b600082825260208201905092915050565b6000611625826116d7565b9150611630836116d7565b9250817fffffffffffffffffffffffffffffffffffffffffffffffffffffffffffffffff048311821515161561166957611668611817565b5b828202905092915050565b600061167f826116b7565b9050919050565b6000611691826116b7565b9050919050565b60008115159050919050565b60008190506116b282611936565b919050565b600073ffffffffffffffffffffffffffffffffffffffff82169050919050565b6000819050919050565b60006116ec82611705565b9050919050565b60006116fe826116a4565b9050919050565b600061171082611717565b9050919050565b6000611722826116b7565b9050919050565b82818337600083830152505050565b60005b8381101561175657808201518184015260208101905061173b565b83811115611765576000848401525b50505050565b6000600282049050600182168061178357607f821691505b6020821081141561179757611796611875565b5b50919050565b6117a6826118d3565b810181811067ffffffffffffffff821117156117c5576117c46118a4565b5b80604052505050565b60006117d9826116d7565b91507fffffffffffffffffffffffffffffffffffffffffffffffffffffffffffffffff82141561180c5761180b611817565b5b600182019050919050565b7f4e487b7100000000000000000000000000000000000000000000000000000000600052601160045260246000fd5b7f4e487b7100000000000000000000000000000000000000000000000000000000600052602160045260246000fd5b7f4e487b7100000000000000000000000000000000000000000000000000000000600052602260045260246000fd5b7f4e487b7100000000000000000000000000000000000000000000000000000000600052604160045260246000fd5b6000601f19601f8301169050919050565b7f61756374696f6e20616c726561647920656e6465640000000000000000000000600082015250565b7f61756374696f6e206e6f742079657420656e6465640000000000000000000000600082015250565b6005811061194757611946611846565b5b50565b61195381611674565b811461195e57600080fd5b50565b61196a81611686565b811461197557600080fd5b50565b611981816116d7565b811461198c57600080fd5b5056fea264697066735822122054724d15253136d8538d70a7992f6ca22cdfce9eec7759a2c989ccdaaa3bb7dc64736f6c63430008010033",
  "immutableReferences": {},
  "source": "// SPDX-License-Identifier: MIT\npragma solidity ^0.8.1;\n\ncontract OpenAuction {\n    // \n    struct Bidder {\n        address payable addr;      // \n        uint bidAmount;            // \n        uint bidTime;              // \n    }\n    // \n    enum ItemCondition {\n        Bidding,                    //\n        nobodyBid,                  //   \n        noYetBid,                   //  (0)\n        successedAuction,           // \n        inRoad                      //\n    }\n    struct Auction {\n        string title;                                   //\n        string info;                                    //\n        uint  amountStart;                              //\n        uint  bond;                                     //\n        address payable beneficiary;                    //\n        address payable highestBidder;                  //\n        uint  highestBid;                               //\n        uint numBidders;                                //\n        mapping(uint => Bidder) Bidders;                //\n        bool startFlg;                                  //\n        ItemCondition condition;                        //\n        bool endFlg;                                    //\n        uint endTime;                                   //\n    }\n\n    uint public auctionsLen;                            // \n    mapping(uint => Auction) public auctions;           // \n    event HighestBidIncreased(address bidder, uint bidAmount, uint bidTime, uint id);\n    event AuctionEnded(address winner, uint amount, uint id);\n\n    //\n    function newAuctionStart(address payable beneficiary, string memory title, string memory info, uint amountStart, uint endTime) public payable returns(uint) {\n        //02*0\n        require(endTime > block.timestamp);\n        require(amountStart > 0);\n        require(msg.value > 2*0);\n        auctionsLen++;\n        Auction storage a = auctions[auctionsLen];\n        a.beneficiary = beneficiary;\n        a.title = title;\n        a.info = info;\n        a.amountStart = amountStart;\n        a.numBidders = 0;\n        a.highestBid = 0;\n        a.endTime = endTime;\n        a.startFlg = true;\n        a.endFlg = false;\n        a.condition = ItemCondition.noYetBid;\n        //\n        a.bond = 2 * amountStart;\n        return auctionsLen;\n    }\n    function getAuctionCondition(uint id) public view returns(ItemCondition) {\n        return(auctions[id].condition);\n    }\n    function bid(uint id) public payable {\n        //0\n        require(msg.value > 0 && msg.value > auctions[id].highestBid && msg.value >= auctions[id].amountStart);\n        require(auctions[id].endTime > block.timestamp);\n        require(auctions[id].endFlg == false);\n\n        //0\n        //0\n        //\n        if (auctions[id].highestBid != 0) {\n            auctions[id].highestBidder.transfer(auctions[id].highestBid);\n        }\n        Auction storage a = auctions[id];\n        //\n        a.highestBidder = payable(msg.sender);\n        a.highestBid = msg.value;\n        a.condition = ItemCondition.Bidding;\n        a.numBidders++;\n        a.Bidders[a.numBidders].addr = payable(msg.sender);\n        a.Bidders[a.numBidders].bidAmount = msg.value;\n        a.Bidders[a.numBidders].bidTime = block.timestamp;\n        emit HighestBidIncreased(msg.sender, msg.value, block.timestamp, id);\n\n    }\n    //\n\n    function getBiddersNum(uint id) public view returns (uint) {\n        return auctions[id].numBidders;\n    }\n\n    function getOneAuctionBidInfo(uint id, uint num) public view returns (address addr, uint bidAmount, uint bidTime) {\n        Bidder storage b = auctions[id].Bidders[num];\n        return (b.addr, b.bidAmount, b.bidTime);\n    }\n    function getMyBidAmount(address addr, uint id) public view returns (uint) {\n        uint maxn = 0;\n        for(uint i = 1; i <= auctions[id].numBidders; i++) {\n            //auction\n            if(auctions[id].Bidders[i].addr == addr) {\n                //\n                if(auctions[id].Bidders[i].bidAmount > maxn) {\n                    maxn = auctions[id].Bidders[i].bidAmount;\n                }\n            }\n        }\n        return maxn;\n    }\n    function getBalance() public view returns (uint) {\n        return address(this).balance;\n    }\n    //\n    function withdrawBond(uint id) public {\n        //msgsender\n        require(msg.sender == auctions[id].beneficiary);\n        //\n        require(block.timestamp >= auctions[id].endTime, \"auction not yet ended\");\n        //\n        require(auctions[id].highestBid == 0);\n\n        //\n        auctions[id].beneficiary.transfer(auctions[id].bond);\n        auctions[id].bond = 0;\n    }\n    //\n    function setAuctionEnd(uint id) public{\n        //  \n        require(block.timestamp >= auctions[id].endTime, \"auction not yet ended\");\n        require(auctions[id].highestBidder == msg.sender);\n        require(!auctions[id].endFlg, \"auction already ended\");\n        //\n        auctions[id].endFlg = true;\n        auctions[id].condition = ItemCondition.successedAuction;\n        emit AuctionEnded(auctions[id].highestBidder, auctions[id].highestBid, id);\n        //\n        auctions[id].beneficiary.transfer(auctions[id].highestBid);\n        //\n        auctions[id].beneficiary.transfer(auctions[id].bond);\n    }\n\n}\n",
  "sourcePath": "/Users/kai/Downloads/crowdfunding-dapp-master/contracts/OpenAuction.sol",
  "compiler": {
    "name": "solc",
    "version": "0.8.1+commit.df193b15.Emscripten.clang"
  },
  "schemaVersion": "3.4.3",
  "updatedAt": "2021-11-22T10:52:45.417Z",
  "networkType": "ethereum",
  "devdoc": {
    "kind": "dev",
    "methods": {},
    "version": 1
  },
  "userdoc": {
    "kind": "user",
    "methods": {},
    "version": 1
  }
}